:100000000C946B000C9488000C9488000C9488006D
:100010000C9488000C9488000C9488000C94880040
:100020000C9488000C9488000C9488000C94880030
:100030000C9488000C9488000C9488000C94880020
:100040000C9488000C9488000C9488000C94880010
:100050000C94880007634236B79BD8A71A396856B4
:1000600018AEBAAB558C1D3CB7CC5763BD6DEDFDDA
:10007000753EF6177231BF000000803F0800000097
:10008000BE922449123EABAAAA2ABECDCCCC4C3E8D
:1000900000000080BEABAAAAAA3E00000000BF007C
:1000A0000000803F0000000000084178D3BB438778
:1000B000D1133D190E3CC3BD4282AD2B3E68EC828C
:1000C00076BED98FE1A93E4C80EFFFBE01C4FF7F11
:1000D0003F000000000011241FBECFE5D8E0DEBFC6
:1000E000CDBF10E0A0E6B0E0E8ECFBE002C0059078
:1000F0000D92A037B107D9F720E0A0E7B0E001C02A
:100100001D92AF38B207E1F70E94DA010C94E205C4
:100110000C94000011B880EC80B9089594EA96BF61
:1001200006B607FEFDCF91B1987F983071F483B980
:1001300084E886BF06B607FEFDCF81B1887F88318F
:1001400031F0803231F083E0089580E0089581E05D
:10015000089582E0089594EA96BF06B607FEFDCFA3
:1001600091B1987F903171F483B984E886BF06B667
:1001700007FEFDCF81B1887F803431F0883431F0C3
:1001800083E0089580E0089581E0089582E0089575
:1001900083B984E886BF06B607FEFDCF81B1887FAC
:1001A000883221F0803321F082E0089580E00895C4
:1001B00081E0089584EC86BF06B607FEFDCF83B1CB
:1001C000089584E886BF06B607FEFDCF83B1089583
:1001D00084E986BF06B604FCFDCF0895CF93C82FEF
:1001E00080ED0E948E008C2F0E94C80081ED0E943D
:1001F000AB000E94DA0090E090938400809383002B
:100200000E94DA0090E090938600809385000E941F
:10021000E10090E090938800809387000E94E800BE
:10022000CF9108959BB39F70282F207F922B9BBB6B
:10023000D898D99A32E03A95F1F700C0D998EFE80A
:10024000F1E03197F1F700C000002BB32F70F0E11F
:100250008F9FC0011124822B8BBBD99A32E03A9533
:10026000F1F700C0D9988FE99FE00197F1F700C03E
:10027000000008959BB39F70282F207F922B9BBB7B
:10028000D89AD99A32E03A95F1F700C0D998EFE8B8
:10029000F1E03197F1F700C000002BB32F70F0E1CF
:1002A0008F9FC0011124822B8BBBD99A32E03A95E3
:1002B000F1F700C0D9988FE99FE00197F1F700C0EE
:1002C000000008958FEF8ABB8FE39CE90197F1F757
:1002D00000C0000082E00E94120188E20E94120128
:1002E0008CE00E94120186E00E94120181E00E94CF
:1002F00012010895CF93DF93EC018881882331F0B8
:1003000021960E943A0189918111FBCFDF91CF9113
:1003100008958F929F92AF92BF92DF92EF92FF92D9
:100320000F931F93CF93DF93D82EC0E0D0E0E12C42
:10033000F12C01E010E8C8010C2E02C0880F991FB3
:100340000A94E2F78D21F1F0BE010D2E000C880B0E
:10035000990B0E94BD029B01AC0160E070E080E05F
:1003600090E40E9449034B015C01B701FF0C880B2C
:10037000990B0E94BD02A50194010E9419020E94DE
:1003800085027B012196C530D105A9F64AE060E7D8
:1003900070E0C7010E94AD0580E790E0DF91CF914A
:1003A0001F910F91FF90EF90DF90BF90AF909F90C3
:1003B0008F9008950E948A000E94620180E00E944E
:1003C000EE0080E80E9412018091870090918800E1
:1003D0000E94890190E00E947A0180E690E00E94EC
:1003E0007A0180918500909186000E94890190E0B9
:1003F0000E947A0180E690E00E947A018091830059
:10040000909184000E94890190E00E947A0180EC22
:100410000E94120182E690E00E947A012FEF83EDA4
:1004200090E3215080409040E1F700C00000C6CF2B
:100430005058BB27AA270E9430020C940F030E9439
:10044000010338F00E94080320F039F49F3F19F4AB
:1004500026F40C94FE020EF4E095E7FB0C94F802EF
:10046000E92F0E94200358F3BA1762077307840725
:10047000950720F079F4A6F50C9442030EF4E0956C
:100480000B2EBA2FA02D0B01B90190010C01CA014E
:10049000A0011124FF27591B99F0593F50F4503EF9
:1004A00068F11A16F040A22F232F342F4427585FEB
:1004B000F3CF469537952795A795F0405395C9F703
:1004C0007EF41F16BA0B620B730B840BBAF09150BB
:1004D000A1F0FF0FBB1F661F771F881FC2F70EC05A
:1004E000BA0F621F731F841F48F48795779567952D
:1004F000B795F7959E3F08F0B0CF9395880F08F019
:100500009927EE0F9795879508950E948C0268941D
:10051000B1110C94430308950E94280388F09F575B
:1005200098F0B92F9927B751B0F0E1F0660F771F17
:10053000881F991F1AF0BA95C9F714C0B13091F00D
:100540000E944203B1E008950C944203672F782F74
:100550008827B85F39F0B93FCCF3869577956795D2
:10056000B395D9F73EF490958095709561957F4F3E
:100570008F4F9F4F0895E89409C097FB3EF49095E4
:100580008095709561957F4F8F4F9F4F9923A9F06C
:10059000F92F96E9BB279395F695879577956795FB
:1005A000B795F111F8CFFAF4BB0F11F460FF1BC03F
:1005B0006F5F7F4F8F4F9F4F16C0882311F096E9D2
:1005C00011C0772321F09EE8872F762F05C0662380
:1005D00071F096E8862F70E060E02AF09A95660F39
:1005E000771F881FDAF7880F9695879597F90895F2
:1005F00097F99F6780E870E060E008959FEF80ECD6
:10060000089500240A941616170618060906089578
:1006100000240A9412161306140605060895092EDE
:100620000394000C11F4882352F0BB0F40F4BF2B4D
:1006300011F460FF04C06F5F7F4F8F4F9F4F08958D
:1006400057FD9058440F551F59F05F3F71F0479583
:10065000880F97FB991F61F09F3F79F08795089568
:10066000121613061406551FF2CF4695F1DF08C087
:10067000161617061806991FF1CF869571056105A4
:1006800008940895E894BB2766277727CB0197F94C
:100690000895FA01EE0FFF1F309621053105A1F1F3
:1006A0006115710561F48038BFE39B0749F16894D7
:1006B0009038810561F08038BFEF9B0741F09923A6
:1006C0004AF5FF3FE1053105210519F1E894089449
:1006D000E795D901AA2329F4AB2FBE2FF85FD0F3F9
:1006E00010C0FF5F70F4A695E0F7F73950F019F0ED
:1006F000FF3A38F49F779F930DD00F9007FC9058E6
:10070000089546F00C94FE0260E070E080E89FE3FC
:1007100008954FE79F775F934F933F932F930E94E6
:1007200044042F913F914F915F910E94C0040C941B
:10073000A10329F416F00C94F8020C9442030C94D3
:10074000FE020E942803A8F39638A0F707F80F923C
:10075000E8942BE33AEA48EB5FE70E94D6040F9255
:100760000F920F924DB75EB70F920E948C04E4E592
:10077000F0E00E94D3034F915F91EF91FF91E595D7
:10078000EE1FFF1F49F0FE57E0684427EE0F441F9D
:10079000FA95E1F74195550B0E9406040F9007FE6C
:1007A0000C94FA030895DF93CF931F930F93FF9256
:1007B000EF92DF927B018C01689406C0DA2EEF0184
:1007C0000E94D304FE01E894A591259135914591AD
:1007D0005591A6F3EF010E943002FE019701A80196
:1007E000DA9469F7DF90EF90FF900F911F91CF910E
:1007F000DF9108959B01AC0160E070E080E89FE329
:100800000C942D050C94F8020C949F050E9428036B
:10081000D8F39923C9F3940F511DA3F3915050407D
:1008200094F059F0882332F0660F771F881F91509B
:100830005040C1F79E3F51052CF7880F911D9695AA
:10084000879597F908955F3FACF0983E9CF0BB27E1
:10085000869577956795B79508F4B1609395C1F73C
:10086000BB0F58F711F460FFE8CF6F5F7F4F8F4FDA
:100870009F4FE3CF0C94430316F00C949F050C9408
:10088000FE0268940C94F8020E942803A8F39923AE
:10089000C1F3AEF3DF93CF931F930F93FF92C92F52
:1008A000DD2788232AF02197660F771F881FDAF744
:1008B00020E030E040E85FEB9FE3883920F0803EA5
:1008C00038F021968F770E941902ECE7F0E004C01F
:1008D0000E941902E9EAF0E00E94D3038B01BE01F5
:1008E000EC01FB2E6F5771097595771F880B990BDB
:1008F0000E94BD0228E132E741E35FE30E94D30496
:10090000AF2D9801AE01FF900F911F91CF91DF9114
:100910000E9430020C940F03FA01DC01AA0FBB1FE6
:100920009B01AC01BF5728F4222733274427507876
:1009300020C0B75190F4AB2F0024469537952795EA
:10094000011CA395D2F3002071F0220F331F441F26
:10095000B395DAF30ED00C94180261307105A0E85B
:100960008A07B94630F49B01AC01662777278827B0
:100970009078309621F02083318342835383089509
:100980000E94D3040C940F030E94010338F00E94CC
:10099000080320F0952311F00C94F8020C94FE0249
:1009A00011240C9443030E94200370F3959FC1F31C
:1009B000950F50E0551F629FF001729FBB27F00D0D
:1009C000B11D639FAA27F00DB11DAA1F649F662762
:1009D000B00DA11D661F829F2227B00DA11D621FB1
:1009E000739FB00DA11D621F839FA00D611D221F6B
:1009F000749F3327A00D611D231F849F600D211D4F
:100A0000822F762F6A2F11249F5750409AF0F1F0D1
:100A100088234AF0EE0FFF1FBB1F661F771F881F3A
:100A200091505040A9F79E3F510580F00C94F80278
:100A30000C9443035F3FE4F3983ED4F38695779597
:100A40006795B795F795E7959F5FC1F7FE2B880FE0
:100A5000911D9695879597F908950E9441050C94EC
:100A60000F030E94080358F00E94010340F029F48C
:100A70005F3F29F00C94F80251110C9443030C943D
:100A8000FE020E94200368F39923B1F3552391F3EA
:100A9000951B550BBB27AA2762177307840738F0ED
:100AA0009F5F5F4F220F331F441FAA1FA9F335D04A
:100AB0000E2E3AF0E0E832D091505040E695001CFE
:100AC000CAF72BD0FE2F29D0660F771F881FBB1FB8
:100AD000261737074807AB07B0E809F0BB0B802D96
:100AE000BF01FF2793585F4F3AF09E3F510578F0C2
:100AF0000C94F8020C9443035F3FE4F3983ED4F364
:100B0000869577956795B795F7959F5FC9F7880F95
:100B1000911D9695879597F90895E1E0660F771FE7
:100B2000881FBB1F621773078407BA0720F0621B78
:100B3000730B840BBA0BEE1F88F7E09508959F3F67
:100B400031F0915020F4879577956795B795880F88
:100B5000911D9695879597F90895BB274A3031F4F2
:100B6000992322F4BDE2909581959F4F0C94B9058D
:100B7000BB27FB015527AA27880F991FAA1FA41777
:100B800010F0A41B83955051B9F7A05DAA3308F06B
:100B9000A95DA193009779F7B111B1931192CB019F
:100BA0000C94D205DC01FC01672F71917723E1F7EA
:100BB000329704C07C916D9370836291AE17BF072A
:080BC000C8F30895F894FFCF7B
:100BC8003A004F50454E204355525441494E530028
:00000001FF
